{
	"_format": "hh-sol-artifact-1",
	"contractName": "Faucet",
	"sourceName": "contracts/Faucet.sol",
	"abi": [
		{
			"anonymous": false,
			"inputs": [
				{
					"indexed": false,
					"internalType": "address",
					"name": "sender",
					"type": "address"
				},
				{
					"indexed": false,
					"internalType": "address",
					"name": "msgsender",
					"type": "address"
				}
			],
			"name": "LogSender",
			"type": "event"
		},
		{
			"inputs": [],
			"name": "unlockTime",
			"outputs": [
				{
					"internalType": "uint256",
					"name": "",
					"type": "uint256"
				}
			],
			"stateMutability": "view",
			"type": "function"
		},
		{
			"inputs": [
				{
					"internalType": "address payable",
					"name": "_sender",
					"type": "address"
				}
			],
			"name": "withdraw",
			"outputs": [],
			"stateMutability": "nonpayable",
			"type": "function"
		},
		{
			"stateMutability": "payable",
			"type": "receive"
		}
	],
	"bytecode": "0x608060405234801561001057600080fd5b506102c1806100206000396000f3fe60806040526004361061002d5760003560e01c8063251c1aa31461003957806351cff8d91461006457610034565b3661003457005b600080fd5b34801561004557600080fd5b5061004e61008d565b60405161005b9190610137565b60405180910390f35b34801561007057600080fd5b5061008b600480360381019061008691906101b5565b610093565b005b60005481565b8073ffffffffffffffffffffffffffffffffffffffff166108fc67016345785d8a00009081150290604051600060405180830381858888f193505050501580156100e1573d6000803e3d6000fd5b507fd7ce2077abeb317d79c019dc51f9b9ec012619a8b63d41ce373038394060d1848133604051610113929190610262565b60405180910390a150565b6000819050919050565b6101318161011e565b82525050565b600060208201905061014c6000830184610128565b92915050565b600080fd5b600073ffffffffffffffffffffffffffffffffffffffff82169050919050565b600061018282610157565b9050919050565b61019281610177565b811461019d57600080fd5b50565b6000813590506101af81610189565b92915050565b6000602082840312156101cb576101ca610152565b5b60006101d9848285016101a0565b91505092915050565b6000819050919050565b60006102076102026101fd84610157565b6101e2565b610157565b9050919050565b6000610219826101ec565b9050919050565b600061022b8261020e565b9050919050565b61023b81610220565b82525050565b600061024c82610157565b9050919050565b61025c81610241565b82525050565b60006040820190506102776000830185610232565b6102846020830184610253565b939250505056fea2646970667358221220ec360a92e4a30fb6bde6166be1aad90155647e90b1915e1b247235b891a0ecc564736f6c63430008110033",
	"linkReferences": {},
	"deployedLinkReferences": {}
}