{
	"_format": "hh-sol-artifact-1",
	"contractName": "Faucet",
	"sourceName": "contracts/Faucet.sol",
	"abi": [
		{
			"anonymous": false,
			"inputs": [
				{
					"indexed": false,
					"internalType": "address",
					"name": "sender",
					"type": "address"
				}
			],
			"name": "LogSender",
			"type": "event"
		},
		{
			"inputs": [],
			"name": "unlockTime",
			"outputs": [
				{
					"internalType": "uint256",
					"name": "",
					"type": "uint256"
				}
			],
			"stateMutability": "view",
			"type": "function"
		},
		{
			"inputs": [
				{
					"internalType": "address payable",
					"name": "_sender",
					"type": "address"
				}
			],
			"name": "withdraw",
			"outputs": [],
			"stateMutability": "nonpayable",
			"type": "function"
		},
		{
			"stateMutability": "payable",
			"type": "receive"
		}
	],
	"bytecode": "0x608060405234801561001057600080fd5b50610290806100206000396000f3fe60806040526004361061002d5760003560e01c8063251c1aa31461003957806351cff8d91461006457610034565b3661003457005b600080fd5b34801561004557600080fd5b5061004e61008d565b60405161005b9190610135565b60405180910390f35b34801561007057600080fd5b5061008b600480360381019061008691906101b3565b610093565b005b60005481565b8073ffffffffffffffffffffffffffffffffffffffff166108fc67016345785d8a00009081150290604051600060405180830381858888f193505050501580156100e1573d6000803e3d6000fd5b507f7bbdc4cdaf68dae8f82950cdddba2d429ba45cdc33e01ddbf48570514540858c81604051610111919061023f565b60405180910390a150565b6000819050919050565b61012f8161011c565b82525050565b600060208201905061014a6000830184610126565b92915050565b600080fd5b600073ffffffffffffffffffffffffffffffffffffffff82169050919050565b600061018082610155565b9050919050565b61019081610175565b811461019b57600080fd5b50565b6000813590506101ad81610187565b92915050565b6000602082840312156101c9576101c8610150565b5b60006101d78482850161019e565b91505092915050565b6000819050919050565b60006102056102006101fb84610155565b6101e0565b610155565b9050919050565b6000610217826101ea565b9050919050565b60006102298261020c565b9050919050565b6102398161021e565b82525050565b60006020820190506102546000830184610230565b9291505056fea26469706673582212200c9bf71a8cf9d3f790124f7adfdbd8026963c9863afe5c2c0fe0310d190951ee64736f6c63430008110033",
	"linkReferences": {},
	"deployedLinkReferences": {}
}